:100000000C9434000C943E000C943E000C943E0082
:100010000C943E000C943E000C943E000C943E0068
:100020000C943E000C943E000C943E000C943E0058
:100030000C943E000C943E000C943E000C943E0048
:100040000C943E000C943E000C943E000C943E0038
:100050000C943E000C943E000C943E000C943E0028
:100060000C943E000C943E0011241FBECFEFD8E04C
:10007000DEBFCDBF0E9451010C94A0010C94000082
:100080009C0140E050E060E472E48FE090E00E9468
:100090005F01215031093093C5002093C40088E1ED
:1000A0008093C1008EE08093C20008959091C000BB
:1000B00095FFFCCF8093C60008959091C00095FFF6
:1000C000FCCF8093C60085E090E00E94EA0080911A
:1000D000C00087FD8091C60008958091C00087FF11
:1000E000FCCF8091C6000895CF93DF93EC018991F6
:1000F000882319F00E945600FACFDF91CF9108951E
:10010000813081F08230C1F4809180008C7F8093B7
:10011000800080918100877E8093810080918100A2
:10012000886008C0809180008C7F809380008091DF
:100130008100877E809381006830710549F13CF42D
:1001400061157105C1F061307105C9F0089561153F
:1001500081E0780731F1611584E0780759F1603466
:10016000710591F580918100887F80938100809155
:100170008100836027C080918100887F23C08091A7
:100180008100887F809381008091810081601AC006
:1001900080918100887F80938100809181008260BE
:1001A00011C080918100887F8093810080918100BF
:1001B000846008C080918100887F80938100809155
:1001C0008100856080938100089560E070E081E0A7
:1001D0000C948000CF93DF93EC010E94E50060E077
:1001E00074E081E00E94800020E030E02C173D07A1
:1001F00069F080918400909185004097D0F310922F
:100200008500109284002F5F3F4FF0CFDF91CF9198
:100210000C94E500ECE7F0E0808180648083EAE7FD
:10022000F0E08081876880830895EAE7F0E08081CC
:100230008F7780830895CF93DF931F92CDB7DEB77A
:1002400089830E940A0190917C00907F8981982B7C
:1002500090937C0080917A00806480937A008091F2
:100260007A0086FFFCCF809178002091790090E0A1
:10027000922B0F90DF91CF9108950E941B0124E6ED
:10028000AC01249FC001259F900D1124BC0180E08A
:1002900090E02FEF33E040E050E00E945F01822FBA
:1002A0000895259A88EE93E00E94EA00C0E285B1A5
:1002B0008C2785B988EE93E00E94EA00F8CF052EDE
:1002C00097FB1EF400940E94760157FD07D00E9410
:1002D0007E0107FC03D04EF40C94760150954095B6
:1002E000309521953F4F4F4F5F4F089590958095E2
:1002F000709561957F4F8F4F9F4F0895A1E21A2E01
:10030000AA1BBB1BFD010DC0AA1FBB1FEE1FFF1FB9
:10031000A217B307E407F50720F0A21BB30BE40B09
:10032000F50B661F771F881F991F1A9469F7609550
:100330007095809590959B01AC01BD01CF0108950A
:04034000F894FFCF5F
:00000001FF
