:100000000C9434000C943E000C943E000C943E0082
:100010000C943E000C943E000C943E000C943E0068
:100020000C943E000C943E000C943E000C943E0058
:100030000C943E000C943E000C943E000C943E0048
:100040000C943E000C943E000C943E000C943E0038
:100050000C943E000C943E000C943E000C943E0028
:100060000C943E000C943E0011241FBECFEFD8E04C
:10007000DEBFCDBF0E9483000C94DE000C94000014
:100080009B0140E050E060E472E48FE090E00E9469
:10009000BC00215031093093C5002093C40088E191
:1000A0008093C1008EE08093C20008958091C000CB
:1000B00085FFFCCF6093C60008958091C00085FF46
:1000C000FCCF6093C6008091C00087FFFCCF809179
:1000D000C60008958091C00087FFFCCF8091C600C4
:1000E00008950F931F93CF93DF938C01EB016991D8
:1000F000662321F0C8010E945600F9CFDF91CF910D
:100100001F910F910895CF93DF931F92CDB7DEB764
:1001100060E875E2CE0101960E944000259A2FEF1B
:1001200083ED90E3215080409040E1F700C0000053
:1001300061E0CE0101960E945D0010E2CE010196C1
:100140000E946A008130D1F785B1812785B92FEFF0
:1001500083ED90E3215080409040E1F700C0000023
:1001600061E0CE0101960E945D008FE39CE901975A
:10017000F1F700C00000E2CFA1E21A2EAA1BBB1BC0
:10018000FD010DC0AA1FBB1FEE1FFF1FA217B30763
:10019000E407F50720F0A21BB30BE40BF50B661F79
:1001A000771F881F991F1A9469F76095709580953D
:1001B00090959B01AC01BD01CF010895F894FFCF4C
:00000001FF
